S01F00004F6E2D64656D616E642054726166666963206C696768742E737265639B
S11300000C942A000C94AB010C9447000C94470008
S11300100C9447000C9447000C9447000C94470040
S11300200C9447000C9447000C9447000C94470030
S11300300C9447000C9447000C9447000C94470020
S11300400C9447000C9447000C9447000C94470010
S11300500C94470011241FBECFE5D8E0DEBFCDBF0E
S113006010E0A0E6B0E0E8E5FBE002C005900D92E8
S1130070A236B107D9F720E0A2E6B0E001C01D9294
S1130080A536B207E1F70E94E2010C94AA050C948C
S1130090000060E081E40E94CD0161E081E40E94FF
S11300A0CD0162E081E40E94CD0160E082E40E941F
S11300B0CD0161E082E40E94CD0162E082E40E940D
S11300C0CD0162E084E40E94C6010E94FF0278949C
S11300D085B7836085BF8BB780648BBF089580919B
S11300E064008111D6C080916000813009F452C04F
S11300F008F459C0823009F497C0833009F09DC0D8
S113010062E081E40E94D40161E081E40E94DB01A9
S113011060E081E40E94DB0160E082E40E94D4019B
S113012061E082E40E94DB0162E082E40E94DB0180
S1130130C0E009C082E490E00E9401038091620063
S1130140813019F0CF5FC233A8F381E0809360005F
S113015082E080936300C3CF61E081E40E94D40114
S113016089E091E00E94010361E081E40E94DB01E7
S113017089E091E00E94010361E081E40E94D401DE
S113018089E091E00E94010380916200813029F0AE
S1130190CF5F01C0C0E0C530F8F283E08093630014
S11301A0109260009CCF60E082E40E94DB0161E079
S11301B082E40E94DB0162E082E40E94D40162E0F6
S11301C081E40E94DB0161E081E40E94DB0160E0E4
S11301D081E40E94D40188E893E10E94010382E053
S11301E08093600081E08093630079CF61E081E4D3
S11301F00E94D40189E091E00E94010361E081E45E
S11302000E94DB0189E091E00E94010361E081E446
S11302100E94D40189E091E00E9401038091620070
S1130220813029F0CF5F01C0C0E0C530F8F21092F0
S1130230630083E08093600052CF83E0809360008A
S1130240109263004CCF61E081E40E94D40161E02C
S113025082E40E94D40189E091E00E94010361E0FC
S113026081E40E94DB0161E082E40E94DB0189E019
S113027091E00E94010361E081E40E94D40161E005
S113028082E40E94D40189E091E00E940103CF5FDF
S113029001C0C0E0C530B8F262E082E40E94D4013B
S11302A061E082E40E94DB0160E082E40E94DB0101
S11302B060E081E40E94D40161E081E40E94DB01FA
S11302C062E081E40E94DB0188E893E10E9401037B
S11302D0C0E025C061E081E40E94D40161E082E4D1
S11302E00E94D40189E091E00E94010361E081E46D
S11302F00E94DB0161E082E40E94DB0189E091E07D
S11303000E94010361E081E40E94D40161E082E47F
S11303100E94D40189E091E00E940103CF5FC530BF
S1130320C8F260E082E40E94D40162E082E40E94A8
S1130330DB0161E082E40E94DB0161E081E40E9470
S1130340DB01109264001092620083E080936000ED
S113035010926300C4CE1F920F920FB60F92112415
S11303608F938091620081110BC08091600088237B
S113037039F0823029F081E0809364008093620038
S11303808F910F900FBE0F901F901895982F862F66
S113039040E0692F0E94E9010895982F862F41E0DB
S11303A0692F0E94E9010895982F862F41E0692F53
S11303B00E9474020895982F862F40E0692F0E94AE
S11303C0740208950E9449000E946F0080E090E04A
S11303D00895623459F118F4613441F00895633496
S11303E009F444C0643409F460C0089541110EC096
S11303F04AB321E030E0B90102C0660F771F8A9545
S1130400E2F7CB01809584238ABB0895413009F03B
S11304106AC04AB321E030E0B90102C0660F771F19
S11304208A95E2F7CB01842B8ABB089541110EC053
S113043047B321E030E0B90102C0660F771F8A9507
S1130440E2F7CB018095842387BB0895413009F0FE
S11304504AC047B321E030E0B90102C0660F771FFC
S11304608A95E2F7CB01842B87BB089541110EC016
S113047044B321E030E0B90102C0660F771F8A95CA
S1130480E2F7CB018095842384BB0895413059F56C
S113049044B321E030E0B90102C0660F771F8A95AA
S11304A0E2F7CB01842B84BB089541110EC041B304
S11304B021E030E0B90102C0660F771F8A95E2F7A8
S11304C0CB018095842381BB0895413061F441B30D
S11304D021E030E0B90102C0660F771F8A95E2F788
S11304E0CB01842B81BB0895623459F118F4613433
S11304F041F00895633409F444C0643409F460C0DD
S1130500089541110EC04BB321E030E0B90102C09F
S1130510660F771F8A95E2F7CB01809584238BBB06
S11305200895413009F06AC04BB321E030E0B901CD
S113053002C0660F771F8A95E2F7CB01842B8BBB31
S1130540089541110EC048B321E030E0B90102C062
S1130550660F771F8A95E2F7CB018095842388BBC9
S11305600895413009F04AC048B321E030E0B901B0
S113057002C0660F771F8A95E2F7CB01842B88BBF4
S1130580089541110EC045B321E030E0B90102C025
S1130590660F771F8A95E2F7CB018095842385BB8C
S11305A00895413059F545B321E030E0B90102C066
S11305B0660F771F8A95E2F7CB01842B85BB0895DC
S11305C041110EC042B321E030E0B90102C0660F10
S11305D0771F8A95E2F7CB018095842382BB089527
S11305E0413061F442B321E030E0B90102C0660F4A
S11305F0771F8A95E2F7CB01842B82BB089513BE43
S113060008958F929F92AF92BF92CF92DF92EF9212
S1130610FF92CF93DF93EC01BC0180E090E00E9455
S1130620A3046B017C012FE632E143E852E40E940B
S1130630FD0388235CF481E490E08C1B9D0B60E057
S113064070E00E949605C1E0D0E035C0C134D10508
S113065079F12FE632E143E852E4C701B6010E9482
S113066002040E94E6030E9474044B015C01EB0146
S11306702FE632E143E85EE3C701B6010E940204BB
S11306806B017C01B40180E090E00E94A3049B0113
S1130690AC01C701B6010E9402049B01AC0160E0F9
S11306A070E080E893E40E9479030E94740403C01C
S11306B060E0C1E0D0E062BF83B7846083BF20E024
S11306C030E008C008B600FEFDCF88B7816088BF5F
S11306D02F5F3F4F2C173D07A8F313BEDF91CF9137
S11306E0FF90EF90DF90CF90BF90AF909F908F904E
S11306F008955058BB27AA270E9491030C944405DF
S11307000E94360538F00E943D0520F039F49F3FE1
S113071019F426F40C9433050EF4E095E7FB0C94DD
S11307200405E92F0E94550558F3BA1762077307A9
S11307308407950720F079F4A6F50C948F050EF440
S1130740E0950B2EBA2FA02D0B01B90190010C01DD
S1130750CA01A0011124FF27591B99F0593F50F4F5
S1130760503E68F11A16F040A22F232F342F44274D
S1130770585FF3CF469537952795A795F040539545
S1130780C9F77EF41F16BA0B620B730B840BBAF015
S11307909150A1F0FF0FBB1F661F771F881FC2F780
S11307A00EC0BA0F621F731F841F48F48795779594
S11307B06795B795F7959E3F08F0B0CF9395880F4E
S11307C008F09927EE0F9795879508950E9477056D
S11307D090F09F3748F4911116F40C94900560E062
S11307E070E080E89FE3089526F01B16611D711DDB
S11307F0811D0C940A050C9425050E94E00408F45C
S113080081E008950E9416040C9444050E943D055D
S113081058F00E94360540F029F45F3F29F00C940B
S1130820040551110C9490050C9433050E94550550
S113083068F39923B1F3552391F3951B550BBB270B
S1130840AA2762177307840738F09F5F5F4F220F50
S1130850331F441FAA1FA9F335D00E2E3AF0E0E847
S113086032D091505040E695001CCAF72BD0FE2F91
S113087029D0660F771F881FBB1F26173707480725
S1130880AB07B0E809F0BB0B802DBF01FF279358DD
S11308905F4F3AF09E3F510578F00C9404050C9498
S11308A090055F3FE4F3983ED4F38695779567957A
S11308B0B795F7959F5FC9F7880F911D9695879512
S11308C097F90895E1E0660F771F881FBB1F621731
S11308D073078407BA0720F0621B730B840BBA0BEF
S11308E0EE1F88F7E09508950E945D0588F09F57F4
S11308F098F0B92F9927B751B0F0E1F0660F771F40
S1130900881F991F1AF0BA95C9F714C0B13091F035
S11309100E948F05B1E008950C948F05672F782FFE
S11309208827B85F39F0B93FCCF3869577956795FA
S1130930B395D9F73EF490958095709561957F4F66
S11309408F4F9F4F0895E89409C097FB3EF490950C
S11309508095709561957F4F8F4F9F4F9923A9F094
S1130960F92F96E9BB279395F69587957795679523
S1130970B795F111F8CFFAF4BB0F11F460FF1BC067
S11309806F5F7F4F8F4F9F4F16C0882311F096E9FA
S113099011C0772321F09EE8872F762F05C06623A8
S11309A071F096E8862F70E060E02AF09A95660F61
S11309B0771F881FDAF7880F9695879597F908951A
S11309C0990F0008550FAA0BE0E8FEEF161617065C
S11309D0E807F907C0F012161306E407F50798F0C4
S11309E0621B730B840B950B39F40A2661F0232BDD
S11309F0242B252B21F408950A2609F4A140A69559
S1130A008FEF811D811D089597F99F6780E870E03D
S1130A1060E00895882371F4772321F09850872BA0
S1130A20762F07C0662311F499270DC09051862BA9
S1130A3070E060E02AF09A95660F771F881FDAF756
S1130A40880F9695879597F908959F3F31F09150B7
S1130A5020F4879577956795B795880F911D96959E
S1130A60879597F908959FEF80EC089500240A94E0
S1130A701616170618060906089500240A94121675
S1130A801306140605060895092E0394000C11F4A8
S1130A90882352F0BB0F40F4BF2B11F460FF04C055
S1130AA06F5F7F4F8F4F9F4F089557FD9058440FAE
S1130AB0551F59F05F3F71F04795880F97FB991FB9
S1130AC061F09F3F79F08795089512161306140676
S1130AD0551FF2CF4695F1DF08C016161706180603
S1130AE0991FF1CF869571056105089408950E94B8
S1130AF05D05A0F0BEE7B91788F4BB279F3860F402
S1130B001616B11D672F782F8827985FF7CF869523
S1130B1077956795B11D93959639C8F30895E89430
S1130B20BB2766277727CB0197F90895AA1BBB1B20
S1130B3051E107C0AA1FBB1FA617B70710F0A61BD9
S1130B40B70B881F991F5A95A9F780959095BC01FA
S10B0B50CD010895F894FFCFD4
S1050B58030094
S9030000FC
